:020000040800F2
:10000000000002209D630008C5050008C705000820
:10001000C9050008CB050008CD0500080000000058
:10002000000000000000000000000000CF050008F4
:10003000D105000800000000D3050008D505000820
:10004000ED630008ED630008ED630008ED63000850
:10005000ED630008ED630008ED630008ED63000840
:10006000ED630008ED630008ED630008ED63000830
:10007000ED630008ED630008ED630008ED63000820
:10008000ED630008ED630008ED630008ED63000810
:10009000ED630008ED630008ED630008ED63000800
:1000A000ED630008ED630008ED630008ED630008F0
:1000B000ED630008ED630008ED630008ED630008E0
:1000C000ED630008ED630008ED630008ED630008D0
:1000D000ED630008ED630008ED630008ED630008C0
:1000E000ED630008ED63000800000000ED63000808
:1000F000ED630008ED630008ED630008ED630008A0
:10010000ED630008ED630008ED630008ED6300088F
:10011000ED630008ED630008ED630008ED6300087F
:10012000ED630008ED630008ED630008ED6300086F
:10013000ED630008ED630008ED630008ED6300085F
:1001400000000000000000000000000000000000AF
:10015000ED630008ED630008ED630008ED6300083F
:10016000ED630008ED630008ED630008ED6300082F
:10017000ED630008ED630008ED6300080000000077
:10018000ED630008ED630008ED630008ED6300080F
:10019000ED630008ED630008ED630008ED630008FF
:1001A000ED630008ED630008ED630008ED630008EF
:1001B000ED630008ED630008ED630008ED630008DF
:1001C000ED630008ED630008ED630008ED630008CF
:1001D000ED630008DD050008ED630008ED6300082D
:1001E000ED630008ED630008ED630008ED630008AF
:1001F000ED630008ED630008ED630008ED6300089F
:10020000ED630008ED630008ED630008ED6300088E
:10021000ED630008ED630008ED630008ED6300087E
:10022000ED630008ED630008ED63000800000000C6
:10023000ED630008ED63000800000000ED630008B6
:10024000ED630008ED630008ED630008ED6300084E
:10025000ED630008ED630008ED630008ED6300083E
:10026000ED630008ED630008ED630008ED6300082E
:10027000ED630008ED630008ED6300080000000076
:10028000ED630008ED630008ED6300080000000066
:0802900000000000ED6300080E
:1002980010B5054C237833B9044B13B10448AFF3B8
:1002A80000800123237010BD000100200000000021
:1002B8004864000808B5034B1BB103490348AFF372
:1002C800008008BD00000000040100204864000808
:1002D80010B584B00024009401940294039404F0AF
:1002E80055FD01238DF800308DF8014001941F223F
:1002F8008DF8082087228DF809208DF80A408DF89E
:100308000B408DF80C308DF80D308DF80E408DF8BF
:100318000F40684604F058FD042004F045FD04B081
:1003280010BD0000F0B58DB000240794089409941E
:100338000A940B94434BD3F8E02042F01002C3F820
:10034800E020D3F8E02002F010020192019AD3F8DD
:10035800E02042F00402C3F8E020D3F8E02002F0E5
:1003680004020292029AD3F8E02042F08002C3F815
:10037800E020D3F8E02002F080020392039AD3F839
:10038800E02042F00102C3F8E020D3F8E02002F0B8
:1003980001020492049AD3F8E02042F00202C3F862
:1003A800E020D3F8E02002F002020592059AD3F883
:1003B800E02042F00802C3F8E020D3F8E03003F070
:1003C80008030693069B204E22462021304604F05F
:1003D8003BFC4FF6FF77079703250895099407A973
:1003E8001A4804F021FB4FF6CF7307930895099438
:1003F80007A9304604F018FB48F20F7307930895D5
:10040800099407A9124804F00FFB2023079301233E
:10041800089309940A9407A9304604F005FB4FF2A3
:10042800F73307930895099407A90A4804F0FCFADA
:1004380007970895099407A9074804F0F5FA0DB03D
:10044800F0BD00BF004402580008025800100258CE
:100458000000025800040258000C025872B6FEE769
:1004680008B51348134B0360A3F17863A3F57E2303
:10047800A3F24F234360002383600122C26003611B
:1004880043618361C361036204F050FD50B90021E8
:10049800074804F0A9FD38B90021054804F0D2FD49
:1004A80020B908BDFFF7DAFFFFF7D8FFFFF7D6FF3F
:1004B8001C0100200058004008B50D480D4B036092
:1004C8000A234360102383604FF48073C3604FF0A6
:1004D80000730361084B436100238361C3610362B6
:1004E8004362836204F0DAFD00B908BDFFF7B6FF86
:1004F80070010020003001400077010000B59DB078
:100508004C22002109A805F093FF2022002101A810
:1005180005F08EFF022004F09DFB1B4B9B6913F432
:10052800005FFAD0012209924FF480330A93022324
:100538001293139314927822159216930A22179203
:1005480018930C23199300231A931B9309A801F0FD
:10055800D9FFA8B93F2301930323029300210391F4
:10056800082304934023059306934FF4806207926F
:10057800089301A802F01AFC20B91DB05DF804FB2D
:10058800FFF76CFFFFF76AFF0048025808B504F050
:1005980073FCFFF79DFEFFF7B1FFFFF7C3FEFFF700
:1005A8005FFFFFF789FF00F0E1F8012220210248F0
:1005B80004F04AFBF9E700BF00080258FEE7FEE72F
:1005C800FEE7FEE7FEE770477047704708B504F09E
:1005D80081FC08BD08B5024800F088FE08BD00BFD0
:1005E800A016002082B0074BD3F8F42042F0020294
:1005F800C3F8F420D3F8F43003F002030193019B0D
:1006080002B070470044025810B5B8B00446002143
:1006180033913491359136913791C02202A805F073
:1006280007FF22681B4B9A4201D038B010BD082240
:100638000023CDE9022302A802F042FE38BB164C83
:10064800D4F8E03043F00203C4F8E030D4F8E030E6
:1006580003F002030093009B4FF44063339312238B
:1006680034930023359336930423379333A90B48E7
:1006780004F0DAF9D4F8E83043F48003C4F8E83039
:10068800D4F8E83003F480030193019BCDE7FFF72A
:10069800E5FED4E700580040004402580004025820
:1006A80070B5BAB00446002135913691379138912A
:1006B8003991C02204A805F0BBFE2268274B9A4254
:1006C80001D03AB070BD4FF480520023CDE9042325
:1006D80004A802F0F5FD00283CD1214BD3F8F02006
:1006E80042F48052C3F8F020D3F8F02002F480528C
:1006F8000192019AD3F8E02042F00102C3F8E02009
:10070800D3F8E02002F001020292029AD3F8E02026
:1007180042F00402C3F8E020D3F8E03003F0040309
:100728000393039BF02335930226369600243794CF
:1007380038940525399535A90A4804F075F9102328
:100748003593369637943894399535A9064804F088
:100758006BF9B6E7FFF782FEBFE700BF0030014044
:1007680000440258000002580008025808B5002248
:100778001049114804F0B6FD80B910490E4804F03C
:10078800C8FD70B90E490C4805F0C2FD60B90A48A9
:1007980004F0D9FD58B904F087FA08BDFFF75EFEEA
:1007A800EBE7FFF75BFEEDE7FFF758FEEFE7FFF734
:1007B80055FEF0E700000020C4010020780000206A
:1007C8005400002012230B800048704720000020AE
:1007D80004230B8000487047340000200023934214
:1007E8001ED200B510E00CF1370C01F813C000015F
:1007F8004FEA430C0CF1010C4FF0000E01F80CE02D
:100808000133DBB2934209D24FEA107CB0F1204F9A
:10081800E9D20CF1300C01F813C0E8E75DF804FBED
:100828007047000038B50B4BD3F80008D3F80448DC
:10083800D3F80838C01800D138BD074D0822A91CC4
:10084800FFF7CCFF042205F112012046FFF7C6FF8F
:10085800F2E700BF00E0F11F3800002008B51A23B6
:100868000B80FFF7DFFF014808BD00BF38000020FC
:1008780008B50A4628B90549054805F0C7FA0348E6
:1008880008BD0249024805F0C1FAF8E7A0040020B3
:100898006064000810B50A46034C2146034805F079
:1008A800B5FA204610BD00BFA004002078640008F7
:1008B80008B50A4628B90549054805F0A7FA0348C6
:1008C80008BD0249024805F0A1FAF8E7A004002093
:1008D8008C64000808B50A4628B90549054805F09A
:1008E80095FA034808BD0249024805F08FFAF8E76F
:1008F800A00400209864000800207047002070477A
:100908000020704710B50146044C204605F019FD3B
:10091800204605F022FD002010BD00BFC4010020C4
:1009280010B5064C00220649204605F0FCFC054996
:10093800204605F006FD002010BD00BFC4010020C0
:10094800A00E0020A006002030B5B9B00446002152
:1009580033913491359136913791C02202A805F030
:1009680067FD22682A4B9A4201D039B030BD4FF456
:1009780080220023CDE9022301230C9312230D9337
:1009880002230E9303220F9210934FF440631193A6
:100998004FF4C05313934FF40013249302A802F0AA
:1009A8008FFC88BB04F080F91A4CD4F8E03043F08F
:1009B8000103C4F8E030D4F8E03003F001030093F9
:1009C800009B4FF4C053339302233493002535958D
:1009D80036950A23379333A90F4804F025F8D4F83D
:1009E800D83043F00063C4F8D830D4F8D83003F0D6
:1009F80000630193019B2A462946652004F06EF99D
:100A0800652004F0A1F9B0E7FFF728FDCAE700BFA9
:100A180000000840004402580000025808B500F2DF
:100A2800C441D0F8080504F0A4FC08BD08B501EBE2
:100A3800C10300EB8303D3F88822D0F8080504F03B
:100A48006AFD08BD08B501EBC10300EB83039A6C8E
:100A5800D0F8080504F0C2FD08BD08B5D0F80805AF
:100A680004F004FD08BD10B5044603693BB1022B30
:100A780001D1012104E0FFF7F1FC012100E0002190
:100A8800D4F8080504F0D3FCD4F8080504F09DFC5C
:100A980010BD000010B50446D0F8080504F0CAFCE3
:100AA8002268D2F8003E43F00103C2F8003E236AF0
:100AB80023B1034A136943F00603136110BD00BF55
:100AC80000ED00E008B5D0F8080504F0C2FC08BD48
:100AD80008B5D0F8080504F0F1FC08BD08B5D0F851
:100AE800080504F0D4FC08BD08B5D0F8080504F0E2
:100AF800FCFC08BD08B5D0F8080504F0F8FC08BDF2
:100B080002780AB10020704710B503461548C0F8AE
:100B18000835C3F8C802144B036009234360022256
:100B280002610023C3608261C3610362436283621E
:100B3800C362036300F0F2F880B90A4C80212046B2
:100B480000F0FDFE40220021204600F0D2FE802267
:100B58000121204600F0CDFE002010BDFFF77EFCED
:100B6800EBE700BFA016002000000840D0F8C8320C
:100B780011F0800F08D101F07F0101EBC10103EBF7
:100B8800810191F87E02704701F07F0101EBC101FC
:100B980003EB810191F83E00704708B5D0F8C80210
:100BA80000F0DDFA08BD000000487047AC1B0020CB
:100BB8007047032805D8DFE800F005040205012086
:100BC80070470320704708B5D0F8C80200F044F910
:100BD800FFF7EFFF08BD08B594461A466346D0F8FC
:100BE800C80200F019FAFFF7E4FF08BD08B5D0F80D
:100BF800C80200F056FAFFF7DCFF08BD08B5D0F8C8
:100C0800C80200F0DAFAFFF7D4FF08BD08B5D0F83B
:100C1800C80200F016FBFFF7CCFF08BD08B5D0F8F6
:100C2800C80200F0E5F9FFF7C4FF08BD08B5D0F821
:100C3800C80200F09DFAFFF7BCFF08BD08B5D0F860
:100C4800C80200F067FAFFF7B4FF08BD2DE9F043CA
:100C580083B0D0F8008001EBC10300EB83031A6D69
:100C6800DB6C9A4254D807460C469B1A01EBC1022A
:100C780000EB8202526C9A4200D31A4602F1030931
:100C88004FEA990915E006F103094FEA990904EBBF
:100C9800C40507EB8505A96C3B7B0093B3B2E2B2B0
:100CA800404601F0A2F9AB6C3344AB642B6D33447E
:100CB8002B6508EB441303F510639B699BB24B4506
:100CC80012D304EBC40207EB8202116DD36C994274
:100CD8000AD24BB15B1A04EBC40207EB8202566CD2
:100CE8009E42D0D31E46CEE704EBC40007EB800734
:100CF800FA6C3B6D9A420FD804F00F040123A3400D
:100D0800D8F8344824EA0304C8F83448002000E03E
:100D1800012003B0BDE8F0830020FAE770B58AB07F
:100D2800002800F097800546046890F8BD343BB36E
:100D3800032385F8BD34E36B13F4807F01D10023CE
:100D4800EB60286800F004FF2C4654F8106BEC4662
:100D58000FCCACE80F000FCCACE80F0094E8030010
:100D68008CE803002B1D0ECB304600F02BFE04460A
:100D780058B1022385F8BD34012420460AB070BD5D
:100D880080F8BC34FFF7E0FDD2E70021286801F0C5
:100D980047FB234616E003EBC30205EB8202012161
:100DA80082F83D1082F83C30A2F85630002182F8D3
:100DB80040105164916403EBC30205EB8202D164D5
:100DC8000133DBB269688B42E5D316E004EBC40358
:100DD80005EB8303002283F87D2283F87C4283F8A5
:100DE8008022C3F88422C3F8882204EBC40305EBED
:100DF8008303C3F88C220134E4B2A142E6D82C461E
:100E080054F8106BEC460FCCACE80F000FCCACE8F4
:100E18000F0094E803008CE803002B1D0ECB30462E
:100E280000F0F2FE044660B9002385F8383001234B
:100E380085F8BD346B6A012B08D0286801F0ADFA3B
:100E48009BE7022385F8BD34012496E7284600F085
:100E58007BFDF2E7012490E7036890F8BC24012A9F
:100E68001AD010B50446012280F8BC24DA6B12F4BB
:100E7800807F02D1826A012A09D0206800F062FED0
:100E8800206801F07CFA002084F8BC0410BD9A6B3D
:100E980042F480329A63F0E70220704770B5044646
:100EA8000D460068066C00EB411303F530639A6841
:100EB800E168012911D038498E4256D03DB905EB79
:100EC800C50304EB8303D3F88C32002B5ED0E9B260
:100ED8002046FFF7ABFD002070BD12F0080F09D0C7
:100EE8002E498E42F7D912F4004FF4D04FF4004245
:100EF8009A60F0E712F0200F02D020229A60EAE709
:100F080012F0280FE7D125498E4206D912F4004F76
:100F180003D04FF400429A60DDE705EBC50204EB0D
:100F28008202D2F89C121B69C3F31203CB1AC2F8CF
:100F380090327DB905EBC50204EB8202D2F88C220F
:100F48006AB105EBC50204EB8202D2F888120B44A1
:100F5800C2F88832E9B22046FFF768FDBBE704F221
:100F6800C442012101F09EFAF4E712F4004F03D0C5
:100F78004FF400429A60AEE712F0200F01D0202211
:100F88009A60E9B22046FFF751FDA4E704F2C44293
:100F9800002101F087FA9AE70A31544F0A30544F7A
:100FA80038B5044603681D6C03EB4113D3F8081BDE
:100FB8000E4A954207D903F5306311F4004F02D069
:100FC8004FF400429A602046FFF728FD074B9D42E8
:100FD80002D9E368012B01D0002038BD04F2C442D5
:100FE8000121206801F05EFAF6E700BF0A30544F8D
:100FF80090F8BC34012B0DD010B50446012380F8BD
:10100800BC3480F83810006801F0A9F9002084F891
:10101800BC0410BD0220704738B505468C4611F057
:10102800800F29D101F00F0E0EEBCE04A40004F5B9
:101038001E740444211D0EEBCE0E00EB8E0E002014
:101048008EF87D020CF00F0C81F800C08A600B71DD
:101058004A780AB1A1F81AC0022B1DD095F8BC3401
:10106800012B1CD0012385F8BC34286800F0A0FEB1
:10107800002085F8BC0438BD01F00F0000EBC0016A
:10108800890038312944043100EBC00005EB8000A9
:10109800012480F83D40D5E700234B71DEE70220AC
:1010A800E9E710B504460A4611F0800F20D101F097
:1010B8000F0000EBC0039B0003F51E732344191DAA
:1010C80000EBC00004EB8000002380F87D3202F0C2
:1010D8000F020A7094F8BC34012B19D0012384F84C
:1010E800BC34206800F0B2FE002084F8BC0410BDB7
:1010F80001F00F0000EBC0039B0038332344191D97
:1011080000EBC00004EB8000012380F83D30DEE7EF
:101118000220ECE708B501F00F0C0CEBCC018900BC
:1011280001F51E71014404310CEBCC0E00EB8E0E60
:10113800CEF88822CEF88C320023CEF890328EF882
:101148007D328EF87CC2C368012B05D0DAB2006804
:1011580000F062FF002008BDCEF89822F6E701F003
:101168000F0101EBC10100EB8101D1F8900270473A
:1011780008B501F00F0C0CEBCC01890038310144A3
:1011880004310CEBCC0E00EB8E0ECEF84820CEF8D6
:101198004C300023CEF8503001238EF83D308EF8C5
:1011A8003CC0C368012B05D0DAB2006800F034FFF8
:1011B800002008BDCEF85820F6E738B501F00F0535
:1011C8004268954239D804460B4611F0800F1FD16A
:1011D80001EBC101890001F51E710144043103EBE3
:1011E800C30300EB8303002283F87D2201238B7065
:1011F8000D7094F8BC34012B21D0012384F8BC3441
:10120800206801F051F88DB1002084F8BC0438BD85
:1012180005EBC501890038310144043105EBC503EC
:1012280000EB8303012283F83D20DFE704F2C44288
:10123800217B206801F036F9E6E70120E7E7022084
:10124800E5E701F00F034268934231D810B5044630
:1012580011F0800F1ED103EBC301890001F51E7147
:101268000144043103EBC30200EB8202002082F840
:101278007D0200228A700B7094F8BC34012B19D0BF
:10128800012384F8BC34206801F03BF8002084F87E
:10129800BC0410BD03EBC30189003831014404319B
:1012A80003EBC30200EB8202012082F83D00E0E775
:1012B800012070470220ECE708B511F0800F0CD12F
:1012C80001F00F0101EBC101890001F51E71014414
:1012D8000431006800F02AFE08BD01F00F0101EB9F
:1012E800C1018900383101440431F2E72DE9F04F9A
:1012F80083B004460568284601F08EF810B103B0A3
:10130800BDE8F08F0646206801F055F80028F6D0B1
:1013180005F50067BB68C3F30D23C4F8FC342068E7
:1013280001F049F810F0020F04D02268536903F065
:1013380002035361206801F03EF810F0100F14D03A
:101348002268936923F010039361D5F8208008F090
:101358000F09C8F34343022B69D0062B00F08D8098
:101368002268936943F010039361206801F023F821
:1013780010F4002F40F09380206801F01CF810F45E
:10138800802F40F0FC80206801F015F80028C0F29A
:101398007F81206801F00FF810F4006F09D0BB6856
:1013A80013F0010F40F08C812268536903F4006345
:1013B8005361206800F0FFFF10F0006F15D022681D
:1013C800536903F00063536194F8F434002B40F040
:1013D8007B81012184F8F41423685B6DC3F38303D4
:1013E800C4F8F834204600F0C3FA206800F0E3FFA0
:1013F80010F4805F40F06C81206800F0DCFF10F48E
:10140800005F40F0B881206800F0D5FF10F0080FA9
:1014180040F0C981206800F0CEFF10F0800F00F086
:10142800DC81AB6923F08003AB610126C5E147F697
:10143800F07318EA030F93D04FEA181B4FEAC90359
:10144800019309EBC90A04EB8A0AC8F30A12DAF80D
:101458008812284600F0FEFECBF30A0BDAF8883231
:101468005B44CAF88832019B4B4404EB8303D3F8EE
:1014780090325B44CAF8903272E7082204F2C44101
:10148800284600F0E7FEC8F30A1809EBC90204EB86
:101498008202D2F890324344C2F8903260E7206862
:1014A80000F08DFF8046B14635E005EB4913012277
:1014B800C3F8082B49462046FFF7F0FC3CE005EB53
:1014C80049130822C3F8082B49462046FFF768FD50
:1014D80035E009EBC90304EB830393F87F32012B52
:1014E80041D005EB49130222C3F8082B1AF0200F4C
:1014F80004D005EB49132022C3F8082B1AF4005F27
:1015080005D005EB49134FF40052C3F8082B09F135
:1015180001094FEA5808B8F1000F3FF42DAF18F051
:10152800010FF4D05FFA89FB5946206800F057FF95
:10153800824610F0010FB8D11AF0080FBFD11AF087
:10154800100F04D005EB49131022C3F8082B1AF02A
:10155800020FCBD06B6913F0800FBAD07B6843F4CD
:1015680080637B60B5E709EBC90304EB83030022C2
:1015780083F87F2259462046FFF7AAFAB1E7206888
:1015880000F025FF8046B14625E059462046FFF782
:1015980059FA1AF0080F04D005EB49130822C3F8CA
:1015A80008291AF0100F04D005EB49131022C3F8CC
:1015B80008291AF0400F04D005EB49134022C3F85C
:1015C80008291AF0020F40D11AF0800F5BD109F1F7
:1015D80001094FEA5808B8F1000F3FF4D4AE18F0EB
:1015E800010FF4D05FFA89FB5946206800F000FF2C
:1015F800824610F0010FCCD009F00F03012101FA47
:1016080003F27B6B23EA02037B6305EB4913C3F800
:101618000819E3688B42B8D109EBC90304EB8303CB
:10162800596C9A6C0A449A64B9F1000FADD109EB70
:10163800C90304EB8303DB6C002BA6D104F2C4427C
:101648000121206800F02EFF9FE74946284600F058
:1016580085FA09EBC90304EB830393F83F30012BA8
:1016680005D005EB49130222C3F80829ACE709EBBA
:10167800C90304EB8303002283F83F205946204620
:10168800FFF72CFAEDE749462046FFF7DFFA9EE719
:101698007B6823F001037B6094F8F434012B08D0B5
:1016A8002046FFF70FFA2268536903F0004353619D
:1016B8006FE6002184F8F414204600F059F9F2E7A7
:1016C8002046FFF7E7F96FE62046FFF7E3F98CE6D7
:1016D8007B6823F001037B601021206800F03EFA4C
:1016E8001AE005EB46134FF67F31C3F80819D3F813
:1016F800002922F40012C3F80029C3F8081BD3F804
:10170800002B22F40012C3F8002BD3F8002B42F070
:101718000062C3F8002B01366368B342E1D8FB6965
:1017280043F00113FB61236BDBB1D7F8843043F03E
:101738000B03C7F884307B6C43F00B037B64D5F84C
:10174800003823F4FE63C5F8003804F2C442217B54
:10175800206800F0A7FE2268536903F480535361A0
:101768004AE67A6942F22B0313437B613B6943F0F3
:101778000B033B61E3E7206800F084FE206800F07B
:1017880007FB2061266801F05BFC0146227C30469D
:1017980000F066F92046FFF766F92268536903F4FA
:1017A800005353612FE62046FFF757F92268536923
:1017B80003F0080353612DE601366368B3420CD980
:1017C80006EBC60304EB830393F87F32012BF3D1B6
:1017D800F1B22046FFF770FDEEE7206800F0EBFD60
:1017E80010F4801F27D1206800F0E5FD10F4001FD9
:1017F8005BD0012328E001366368B3421DD905EBAD
:101808004613D3F8002906EBC60304EB830393F8C9
:101818004030012BEFD1002AEDDA06EBC60304EBCA
:101828008303012283F83F2066F07F01C9B2204676
:10183800FFF742FDDFE70126DEE72268536903F47C
:1018480080135361CFE7013362689A4228D905EBC8
:101858004312D2F8001B03EBC30204EB820292F896
:101868008022012AEFD10029EDDA01F48031D4F881
:10187800FC2402F001029142E5D103EBC30204EB20
:101888008202012182F87F12AA6942F08002AA61CD
:101898006A6912F0800FD6D17B6843F400737B60CD
:1018A8002268536903F400135361206800F083FD34
:1018B80010F0804F10D1206800F07DFD10F0040F6B
:1018C8003FF41DAD23685D6815F0040F0DD1226843
:1018D80053682B43536012E52046FFF705F9226849
:1018E800536903F080435361E5E72046FFF702F9A7
:1018F800EDE710B40468606A31B940EA0240A062BA
:1019080000205DF8044B70478C46A36A00EB134037
:10191800002308E003F1400104EB8101496800EB72
:1019280011400133DBB20CF1FF318B42F2D340EAB4
:1019380002400CF13F0104EB81014860E0E70368D5
:101948005962002070470000034602680121C0F870
:101958000015002083F8F404936943F00063936151
:10196800516D024B0B435365704700BF03000010D5
:101978007047000082B000230193019B013301935B
:10198800019A0F4B9A4215D80369002BF5DA002308
:101998000193036943F001030361019B0133019340
:1019A800019A074B9A4208D8036913F0010FF4D142
:1019B800002000E0032002B070470320FBE700BFCF
:1019C800400D030084B010B5044603A880E80E005B
:1019D800089B012B1DD1A36B23F48033A363E2681A
:1019E8001D4B1340E360E36823F44013E3600F9B4F
:1019F800012B09D02046FFF7BDFF059B012B1BD00B
:101A0800BDE8104004B07047E36843F48013E36016
:101A1800F0E7E36843F04003E3602046FFF7AAFFDE
:101A28000C9B23B9A36B43F48033A363E5E7A36B53
:101A380023F48033A363E0E7E36D9BB2E365E26DD3
:101A4800064B1343E365A36843F00603A360A3684A
:101A580043F02003A360D3E7BFFFBDFF0000EE0300
:101A6800022A0AD00921C26822F47052C260C368EF
:101A780043EA8123C36000207047204B0B44204A6F
:101A8800934229D91F4B0B441F4A934226D91F4B17
:101A98000B441F4A934223D91E4B0B441E4A9342C0
:101AA80020D31E4B0B441E4A93421DD91D4B0B4499
:101AB8001D4A93421AD31D4B0B441D4A934217D318
:101AC8001C4B0B441C4A934214D31C4B0B441C4A1A
:101AD800934211D20721C6E70F21C4E70E21C2E7BE
:101AE8000D21C0E70C21BEE70B21BCE70A21BAE7AC
:101AF8000921B8E70821B6E70621B4E7405327FFD4
:101B0800FF340C00401E1BFF3F420F0000DC0BFFA0
:101B18007F4F1200808CF9FE20D6130060B6E5FED8
:101B28005FE3160000D3CEFE40771B00C05BB3FE18
:101B3800C091210000CA91FE20753800E05459FE7A
:101B4800E09C4100836843F00103836000207047F4
:101B5800836823F0010383600020704782B000236C
:101B68000193019B01330193019A0F4B9A4215D8B7
:101B78000369002BF5DA00230193890141F0200164
:101B88000161019B01330193019A074B9A4208D8DE
:101B9800036913F0200FF4D1002000E0032002B005
:101BA80070470320FBE700BF400D030082B000230D
:101BB8000193019B01330193019A0E4B9A4213D86A
:101BC8000369002BF5DA0023019310230361019BBD
:101BD80001330193019A074B9A4208D8036913F01D
:101BE800100FF4D1002000E0032002B0704703205A
:101BF800FBE700BF400D0300D0F800381943C0F8D8
:101C0800001800207047000084B02DE9F041044618
:101C180007A880E80E00002306E003F1400204EB69
:101C280082020021516001330E2BF6D9119F27BB88
:101C3800D4F8043843F00203C4F80438A36B23F43F
:101C48000013A363236843F040032360236843F031
:101C5800800323600023C4F8003E04F50065D4F82F
:101C68000038C4F800380C9B012B10D10A9B4BB9E3
:101C780000212046FFF7C0FF0DE0A36B43F40013DB
:101C8800A363E7E701212046FFF7B6FF03E003213E
:101C98002046FFF7B1FF10212046FFF75FFF80467F
:101CA80008B14FF001082046FFF780FF08B14FF058
:101CB800010800232B616B61EB610AE0C3B94FF0A7
:101CC8000060C2F8000900220A614FF67F328A607C
:101CD80001330799994210D904EB431202F51061B8
:101CE800D2F800090028E9DB0020C2F80009EAE779
:101CF8004FF09040C2F80009E5E700230AE0C3B1BD
:101D08004FF0904CC2F800CB002202614FF67F32B0
:101D180082600133994211D904EB431202F5306015
:101D2800D2F8006B002EEADB4FF0000CC2F800CBB3
:101D3800EAE74FF0006CC2F800CBE5E72B6923F423
:101D480080732B610023A3616FF080436361099B5B
:101D58001BB9A36943F01003A361A2690A4B13439B
:101D6800A3610D9B1BB1A36943F00803A361012F75
:101D780004D04046BDE8F04104B07047A269034B67
:101D88001343A361F5E700BF00383C80040000401E
:101D9800D0F8083813F0060305D0062B18BF022B1D
:101DA80003D102207047002070470F2070470000C1
:101DB80010B591F800C04B78012B21D000F5006ECA
:101DC800D0F81C380CF00F040122A24043EA024369
:101DD800C0F81C3800EB4C10D0F8003B13F4004F4F
:101DE8000CD1D0F8002B8B68C3F30A03097943EAB6
:101DF80081431343144A1A43C0F8002B002010BD36
:101E0800D0F81C280CF00F0E03FA0EF39BB2134304
:101E1800C0F81C3800EB4C10D0F8003913F4004F10
:101E2800ECD1D0F800298B68C3F30A03097943EA97
:101E3800814343EA8C5C42EA0C0C034B4CEA0303F3
:101E4800C0F80039DAE700BF0080001030B40B7822
:101E58004A78012A26D000EB4313D3F8002B002A36
:101E680052DBD0F83C480A7802F00F024FF0010C20
:101E78000CFA02F224EA0242C0F83C28D0F81C28E6
:101E8800097801F00F010CFA01FC22EA0C42C0F8B3
:101E98001C28D3F8001B234A0A40C3F8002B002053
:101EA80030BC704700EB4313D3F80029002A1EDB2F
:101EB800D0F83C580A7802F00F02012404FA02F222
:101EC80092B225EA0202C0F83C28D0F81C2809780A
:101ED80001F00F018C40A4B222EA0404C0F81C48A7
:101EE800D3F80019104A0A40C3F80029D7E7D3F8F5
:101EF800002942F00062C3F80029D3F8002942F013
:101F08008042C3F80029D3E7D3F8002B42F00062DF
:101F1800C3F8002BD3F8002B42F08042C3F8002B03
:101F28009FE700BF0078F3EF007833EC10B483B07C
:101F3800024600230193487801280BD00B7802EB66
:101F48004313D3F8000B00282DDB002003B05DF805
:101F5800044B70470B7802EB4313D3F80049002C6D
:101F680001DB0020F2E7D3F8004944F00064C3F82D
:101F780000490B7802EB4313D3F8004944F080443E
:101F8800C3F80049019B01330193019C42F210738D
:101F98009C42DBD80B7802EB4313D3F80039002BB3
:101FA800F0DB0020D2E7D3F8000B40F00060C3F864
:101FB800000B0B7802EB4313D3F8000B40F0804082
:101FC800C3F8000B019B01330193019842F210738F
:101FD800984208D80B7802EB4313D3F8003B002B48
:101FE800F0DB0020B2E70120B0E710B59DF808400B
:101FF80084B903334FEA930E4FF0000C08E000EB6E
:10200800023303F5805351F8044B1C600CF1010CAA
:10201800F445F4D3002010BDF0B583B00C784B78AC
:10202800012B2DD000EB441C0CF530631E69864D46
:1020380035401D611E69854D35401D61002C40F0FD
:10204800C7800C690CB18C680C618C680C621D69C6
:10205800C4F312042C431C611C6944F400241C6161
:10206800012A00F0D8800B79012B00F0DA80DCF827
:10207800003B43F00443CCF8003B002003B0F0BD24
:102088000B6973BB00EB4413D3F810696F4D3540EF
:10209800C3F81059D3F8105945F40025C3F810595E
:1020A800D3F81069684D3540C3F81059012A4DD04E
:1020B80000EB4414D4F8003943F00443C4F8003961
:1020C8000B79012B6BD00B69002BD6D0D0F83438A4
:1020D8000A7802F00F0101228A401343C0F834380D
:1020E800CBE700EB441303F510631E69564D3540EA
:1020F8001D611E69554D35401D61D4B90E698D6845
:10210800AE4200D90D611D6945F400251D611D69A8
:102118000E69C6F3120635431D610D79012DC5D12F
:102128001D6925F0C0451D611D6945F000551D61FB
:10213800BCE71E690D698F683D44013DB5FBF7F5A5
:10214800434F07EAC54535431D61E0E7CB691BB13D
:1021580000EB4412C2F814390B79012B08D000EBBC
:102168004410D0F8003943F00443C0F8003984E73C
:10217800D0F8083813F4807F08D100EB4412D2F865
:10218800003943F00053C2F80039E8E700EB441285
:10219800D2F8003943F08053C2F80039DFE7D0F8AD
:1021A800083813F4807F0CD1D4F8003943F0005379
:1021B800C4F8003900920B8A0A78C968FFF715FF3E
:1021C8005BE7D4F8003943F08053C4F80039F1E7ED
:1021D8000C6954B91C698D68C5F312052C431C6140
:1021E8001C6944F400241C613AE78D682C44013CC6
:1021F800B4FBF5F4A4B204FB05F50D621D69144E99
:1022080006EAC4442C431C611C690D6AC5F3120517
:102218002C431C6124E7CA68002A3FF424AF5A61A2
:1022280021E7D0F8083813F4807F06D1DCF8003BAA
:1022380043F00053CCF8003B19E7DCF8003B43F0CF
:102248008053CCF8003B12E70000F8FFFFFF07E0DF
:102258000000F81F00B583B0844608464FEA920E86
:1022680002F00302002305E00CF58051096840F8EC
:10227800041B01337345F7D39AB10CF5805CDCF885
:10228800003001934FF0000C5FFA8CF3D900019BEA
:10229800CB4000F8013B0CF1010C013A92B2002A44
:1022A800F2D103B05DF804FB0B784A78012A14D008
:1022B80000EB4310D0F8002B002A06DB2BB1D0F836
:1022C800003B23F08043C0F8003BD0F8003B43F4C8
:1022D8000013C0F8003B0020704700EB4310D0F813
:1022E8000029002A06DB2BB1D0F8003923F08043FF
:1022F800C0F80039D0F8003943F40013C0F80039A9
:10230800E9E70B784A78012A0ED000EB4310D0F8A1
:10231800003B23F40013C0F8003B0B79023BDBB20F
:10232800012B15D90020704700EB4310D0F8003975
:1023380023F40013C0F800390B79023BDBB2012B00
:10234800F0D8D0F8003943F08053C0F80039E9E7F5
:10235800D0F8003B43F08053C0F8003BE2E7D0F8E8
:10236800003823F4FE63C0F80038D0F800380901BB
:1023780001F4FE611943C0F8001800207047D0F836
:10238800003E23F00303C0F8003ED0F8043823F0E1
:102398000203C0F8043800207047D0F8003E23F04C
:1023A8000303C0F8003ED0F8043843F00203C0F835
:1023B8000438002070474269806910407047D0F89F
:1023C800183800F50060C0691840000C7047D0F854
:1023D800183800F50060C069184080B2704700EBFB
:1023E8004111D1F8082B00F5006040691040704792
:1023F80010B4D0F81048D0F8343801F00F02D340A8
:10240800DB01DBB2234300EB411000F5106080686C
:1024180018405DF8044B7047406900F001007047B0
:1024280038B50546C36823F0C043C360012913D0FB
:1024380019BBC36843F08043C3600024012002F045
:102448005BFD01342846FFF7E7FF08B1312CF5D9C9
:10245800322C14D0002038BDC36843F00053C36049
:102468000024012002F048FD01342846FFF7D4FF7C
:102478000128EDD0312CF4D9EAE70120EBE701205F
:10248800E9E70000D0F80029054B1340C0F80039EF
:10249800D0F8043843F48073C0F80438002070473B
:1024A80000F8FFFF10B4046C154B9C4203D9D0F818
:1024B800003B002B16DB0024C0F8104BD0F8104B63
:1024C80044F40024C0F8104BD0F8104B44F0180422
:1024D800C0F8104BD0F8104B44F0C044C0F8104B73
:1024E800012903D000205DF8044B7047C0F8142B75
:1024F800D0F8003B43F08023C0F8003BF2E700BF70
:102508000A30544F002800F0398338B50446036870
:1025180013F0010F25D0944A136903F03803926A27
:10252800102B15D0182B0FD06368B3F5803F3FD020
:10253800002B53D18C4B1A6822F480321A601A6827
:1025480022F480221A6038E002F00302022AEBD15A
:10255800854B1B6813F4003F03D06368002B00F021
:102568000F83236813F0020F00F0A1807E4A1369DD
:10257800926A13F038035AD0182B55D0E368002B11
:1025880000F0DE8078490A6822F0190213430B60D4
:1025980002F0ACFC0546744B1B6813F0040F40F0C6
:1025A800AD8002F0A3FC401B0228F4D90320EEE220
:1025B8006D4A136843F48033136063682BB302F0E9
:1025C80095FC0546684B1B6813F4003FC9D102F01F
:1025D8008DFC401B6428F5D90320D8E2B3F5A02F61
:1025E80009D0614B1A6822F480321A601A6822F402
:1025F80080221A60E1E75C4B1A6842F480221A6074
:102608001A6842F480321A60D7E702F06FFC054678
:10261800554B1B6813F4003FA3D002F067FC401B26
:102628006428F5D90320B2E212F0030FA6D14E4B6D
:102638001B6813F0040F03D0E368002B00F0A2829C
:10264800494A136823F01903E1680B43136002F049
:102658004DFC0546444B1B6813F0040F06D102F0ED
:1026680045FC401B0228F5D9032090E202F058FCF3
:1026780041F20303984212D82269402A07D03A4906
:102688004B6823F47C3343EA02334B600FE0364A4D
:10269800536823F47C3343F40033536007E0324A31
:1026A800536823F0FE43216943EA016353602368BA
:1026B80013F0100F00F088802B4A136903F03803D9
:1026C800926A082B56D0182B50D0E369002B00F0E3
:1026D800B880254A136843F08003136002F006FCB3
:1026E8000546214B1B6813F4807F40F0888002F078
:1026F800FDFB401B0228F4D9032048E202F010FC3D
:1027080041F20303984212D82269402A07D0164999
:102718004B6823F47C3343EA02334B60C7E7124A21
:10272800536823F47C3343F400335360BFE70E4A05
:10273800536823F0FE43216943EA01635360B6E717
:10274800094A136823F00103136002F0CFFB054622
:10275800054B1B6813F0040FA9D002F0C7FB401B00
:102768000228F5D9032012E20044025802F00302BD
:10277800012AAAD1A14B1B6813F4807F03D0E36917
:10278800802B40F0018202F0CBFB41F20303984218
:1027980012D8226A202A07D098494B6823F0F843B8
:1027A80043EA82634B600FE0944A536823F0F8438E
:1027B80043F08043536007E0904AD36823F07C538A
:1027C800216A43EA0163D360236813F0080F60D0DD
:1027D8006369002B49D0894A536F43F0010353675B
:1027E80002F084FB0546854B5B6F13F0020F50D156
:1027F80002F07CFB401B0228F5D90320C7E102F058
:102808008FFB41F20303984212D8226A202A07D08C
:102818007A494B6823F0F84343EA82634B60D3E775
:10282800764A536823F0F84343F080435360CBE77C
:10283800724AD36823F07C53216A43EA0163D36068
:10284800C2E76E4A136823F08003136002F04EFB60
:1028580005466A4B1B6813F4807FB5D002F046FB2F
:10286800401B0228F5D9032091E1644A536F23F0F5
:102878000103536702F03AFB0546604B5B6F13F0A8
:10288800020F06D002F032FB401B0228F5D90320C4
:102898007DE1236813F0200F29D0A3699BB1574A23
:1028A800136843F48053136002F020FB0546534B32
:1028B8001B6813F4005F1AD102F018FB401B0228B2
:1028C800F5D9032063E14D4A136823F4805313605C
:1028D80002F00CFB0546494B1B6813F4005F06D059
:1028E80002F004FB401B0228F5D903204FE12368BE
:1028F80013F0040F21D1636A002B00F047813F4A8F
:10290800126902F03802182A00F0EE80022B79D002
:102918003A4A136823F08073136002F0E7FA04461A
:10292800364B1B6813F0007F00F0DC8002F0DEFA03
:10293800001B0228F4D9032029E1314A136843F423
:102948008073136002F0D2FA05462D4B1B6813F40E
:10295800807F06D102F0CAFA401B6428F5D903200B
:1029680015E1A368012B0AD00BBB244B1A6F22F088
:1029780001021A671A6F22F004021A6704E01F4A5C
:10298800136F43F001031367A36833B302F0AEFA81
:1029980005461A4B1B6F13F0020FACD102F0A6FAD2
:1029A800401B41F288339842F3D90320EFE0052B0E
:1029B80009D0124B1A6F22F001021A671A6F22F01F
:1029C80004021A67E0E70D4B1A6F42F004021A6717
:1029D8001A6F42F001021A67D6E702F087FA054635
:1029E800064B1B6F13F0020F85D002F07FFA401BD5
:1029F80041F288339842F3D90320C8E000440258D2
:102A080000480258694A136823F08073136002F083
:102A18006DFA0546654B1B6813F0007F06D002F07F
:102A280065FA401B0228F5D90320B0E05F4B996A8C
:102A38005F4A0A40A16AE06A41EA00110A439A62C1
:102A4800226B013AC2F30802616B0139490289B26B
:102A58000A43A16B0139090401F4FE010A43E16B41
:102A68000139090601F0FE410A431A63DA6A22F0C5
:102A78000102DA62596B4F4A0A40A16C42EAC1026C
:102A88005A63DA6A22F00C02216C0A43DA62DA6AC3
:102A980022F00202616C0A43DA62DA6A42F4803296
:102AA800DA62DA6A42F40032DA62DA6A42F48022DE
:102AB800DA62DA6A42F00102DA621A6842F0807277
:102AC8001A6002F013FA0446384B1B6813F0007FB3
:102AD80006D102F00BFA001B0228F5D9032056E0B4
:102AE800002054E0002052E0304A916A106B012B1C
:102AF8004ED001F00303A26A93424BD1C1F30511F2
:102B0800E36A994248D1C0F30802236B013B9A4219
:102B180044D1C0F34622636B013B9A4240D1C0F3D3
:102B28000642A36B013B9A423CD1C0F30660E36BBB
:102B3800013B984238D11D4B5B6BC3F3CC03A26CAD
:102B48009A4201D1002022E0184AD36A23F00103F7
:102B5800D36202F0CBF9054602F0C8F9A842FBD0CF
:102B6800124A516B134B0B40A16C43EAC1035363E8
:102B7800D36A43F00103D362002008E001207047C4
:102B8800012004E0012002E0012000E0002038BD1F
:102B98000120FCE70120FAE70120F8E70120F6E729
:102BA8000120F4E70120F2E70120F0E70044025891
:102BB8000CFCFFFF0700FFFF744B1B6903F0380391
:102BC800102B00F0DE80182B10D00BB17048704726
:102BD8006E4B1B6813F0200F00F0D5806B4B186804
:102BE800C0F3C1006B4B23FA00F0704710B4674A7A
:102BF800916A01F00301946AC4F30510D36A03F0E3
:102C0800010C536BC3F3CC030CFB03F307EE903AB0
:102C1800F8EE677A14F47C7F00F09380012965D080
:102C2800022900F09180E1B107EE100AF8EE476A38
:102C38009FED596A86EE267A544B1B6BC3F3080343
:102C480006EE903AF8EE666A9FED546A67EE867A69
:102C580076EEA77AF7EE006A77EEA67A27EE277A5D
:102C680060E0136813F0200F23D011461268C2F3F6
:102C7800C102484BD34007EE103AF8EE476A07EE18
:102C8800100AB8EE476A86EE867A0B6BC3F3080320
:102C980006EE903AF8EE666A9FED406A67EE867A2D
:102CA80076EEA77AF7EE006A77EEA67A27EE277A0D
:102CB80038E007EE100AF8EE476A9FED396A86EEAB
:102CC800267A324B1B6BC3F3080306EE903AF8EEF4
:102CD800666A9FED326A67EE867A76EEA77AF7EE35
:102CE800006A77EEA67A27EE277A1BE007EE100A2D
:102CF800F8EE476A9FED286A86EE267A234B1B6B0F
:102D0800C3F3080306EE903AF8EE666A9FED236A6D
:102D180067EE867A76EEA77AF7EE006A77EEA67AFD
:102D280027EE277A194B1B6BC3F34623013307EEB3
:102D3800903AF8EE677AC7EE276AFCEEE67A17EE65
:102D4800900A5DF8044B704707EE100AF8EE476AE0
:102D58009FED146A86EE267A0C4B1B6BC3F30803AF
:102D680006EE903AF8EE666A9FED0C6A67EE867A90
:102D780076EEA77AF7EE006A77EEA67A27EE277A3C
:102D8800D0E7094870470348704700BF004402581D
:102D980000093D000090D0030024744A0000003967
:102DA8000024744C0024F44A00127A00002800F031
:102DB800328170B50D4604469B4B1B6803F00F0328
:102DC8008B420BD2984A136823F00F030B4313600E
:102DD800136803F00F038B4240F01F81236813F040
:102DE800040F0CD02269914B9B6903F070039A423F
:102DF80005D98E498B6923F070031A438A612368C9
:102E080013F0080F0CD06269884BDB6903F070037C
:102E18009A4205D98549CB6923F070031A43CA61E0
:102E2800236813F0100F0CD0A269804BDB6903F400
:102E3800E0639A4205D97D49CB6923F4E0631A43DC
:102E4800CA61236813F0200F0CD0E269774B1B6A24
:102E580003F070039A4205D974490B6A23F0700392
:102E68001A430A62236813F0020F0CD0E2686F4B12
:102E78009B6903F00F039A4205D96C498B6923F0CB
:102E88000F031A438A61236813F0010F41D0674A80
:102E9800936923F47063A1680B4393616368022B01
:102EA8000AD0032B27D0012B2CD0604A126812F0CD
:102EB800040F06D10120ADE0126812F4003F00F0C3
:102EC800AE805A490A6922F0070213430B6102F0E7
:102ED8000DF80646554B1B6903F038036268B3EBDF
:102EE800C20F16D002F002F8801B41F288339842D4
:102EF800F0D903208EE04D4A126812F0007FE0D12D
:102F0800012087E0494A126812F4807FD9D1012054
:102F180080E0236813F0020F0CD0E268434B9B69F2
:102F280003F00F039A4205D240498B6923F00F033F
:102F38001A438A613C4B1B6803F00F03AB420AD962
:102F4800394A136823F00F032B431360136803F007
:102F58000F03AB4265D1236813F0040F0CD022692C
:102F6800324B9B6903F070039A4205D22F498B6953
:102F780023F070031A438A61236813F0080F0CD0FA
:102F880062692A4BDB6903F070039A4205D227492C
:102F9800CB6923F070031A43CA61236813F0100F3A
:102FA8000CD0A269214BDB6903F4E0639A4205D295
:102FB8001E49CB6923F4E0631A43CA61236813F0FE
:102FC800200F0CD0E269194B1B6A03F070039A4278
:102FD80005D216490B6A23F070031A430A62FFF7F9
:102FE800EBFD12498B69C3F30323114AD35C03F049
:102FF8001F03D8408B6903F00F03D35C03F01F0352
:1030080020FA03F30B4A13600B4B18600B4B18683C
:1030180001F00AFF70BD012070470120FAE7012086
:10302800F8E70120F6E700BF0020005200440258EC
:10303800A864000874000020700000206C000020C4
:1030480008B5FFF7B9FD0B4A9369C3F303230A498F
:10305800CB5C03F01F0320FA03F3926902F00F021E
:10306800885C00F01F0023FA00F0044A1060044A4C
:10307800136008BD00440258A864000874000020CA
:103088007000002008B5FFF7DBFF054BDB69C3F3D1
:103098000213044AD35C03F01F03D84008BD00BFE5
:1030A80000440258A8640008404B9B6A03F00303DD
:1030B800032B79D070B505460E463C4A136823F0B9
:1030C8008063136001F012FF0446384B1B6813F04D
:1030D800006F06D001F00AFF031B022BF5D903206D
:1030E80070BD324B9A6A22F47C32296842EA013276
:1030F8009A626A68013AC2F30802A968013949026A
:1031080089B20A43E9680139090401F4FE010A4356
:1031180029690139090601F0FE410A439A63DA6A0E
:1031280022F0C00269690A43DA62DA6A22F02002F0
:10313800A9690A43DA62DA6A22F01002DA62D96B04
:103148001B4A0A40E96942EAC102DA63DA6A42F0D4
:103158001002DA62C6B91A46DB6A43F40023D36266
:10316800124A136843F08063136001F0BFFE0446FF
:103178000E4B1B6813F0006F14D101F0B7FE001B53
:103188000228F5D90320ABE7012E05D0074AD36AF8
:1031980043F40013D362E3E7044AD36A43F4801389
:1031A800D362DDE700209BE7012070470044025806
:1031B8000700FFFF404B9B6A03F00303032B79D002
:1031C80070B505460E463C4A136823F080531360D9
:1031D80001F08CFE0446384B1B6813F0005F06D0E4
:1031E80001F084FE031B022BF5D9032070BD324B7E
:1031F8009A6A22F07C72296842EA01529A626A68E5
:10320800013AC2F30802A9680139490289B20A439E
:10321800E9680139090401F4FE010A432969013901
:10322800090601F0FE410A431A64DA6A22F4406290
:1032380069690A43DA62DA6A22F40072A9690A4300
:10324800DA62DA6A22F48072DA62596C1B4A0A403E
:10325800E96942EAC1025A64DA6A42F48072DA62BF
:10326800C6B91A46DB6A43F48003D362124A13686C
:1032780043F08053136001F039FE04460E4B1B687F
:1032880013F0005F14D101F031FE001B0228F5D9BC
:103298000320ABE7012E05D0074AD36A43F08073B9
:1032A800D362E3E7044AD36A43F40003D362DDE759
:1032B80000209BE701207047004402580700FFFFE9
:1032C800F8B50446036813F0006F30D0836EB3F589
:1032D800001F26D00ED8EBB1B3F5801F07D102210D
:1032E8000830FFF7E1FE054645B12E4621E00126EC
:1032F80035461EE0B3F5401F09D10025984A136DE5
:1033080023F44013A16E0B431365002611E0012638
:1033180035460EE0924AD36A43F40033D36200255F
:10332800ECE702212830FFF745FF0546DCE70026D9
:103338003546236813F4807F14D0A36D042B32D84C
:10334800DFE803F003232A080800854AD36A43F418
:103358000033D36255BB824A136D23F00703A16D76
:103368000B431365236813F4007F31D0E36D802B82
:103378004CD020D8002B43D0402B19D1002104F188
:103388000800FFF791FE05461AE0002104F1080045
:10339800FFF78AFE0546DDE7002104F12800FFF764
:1033A80009FF0546D6E701263546DBE72E46D9E76D
:1033B800012635460CE0C02B02D0B3F5807F1CD126
:1033C8005DBB674A136D23F4E073E16D0B4313652E
:1033D800236813F4806F46D0D4F8A830B3F5800F73
:1033E80039D01FD88BB3B3F5001F18D1002104F1D1
:1033F8000800FFF759FE05461AE001263546E7E7BB
:10340800574AD36A43F40033D362D9E7002104F161
:103418002800FFF7CFFE0546D2E72E46D8E701265B
:10342800354620E0B3F5C00F02D0B3F5000F09D13F
:10343800C5B94B4A936D23F46003D4F8A8100B4325
:10344800936510E0012635460DE0454AD36A43F4FA
:103458000033D362ECE7002104F12800FFF7AAFE4D
:103468000546E5E72E46236813F4006F24D0D4F808
:10347800AC30B3F1007F42D00ED8002B39D0B3F175
:10348800807F06D1002104F10800FFF70DFE0546F4
:1034980008E0012635460FE0B3F1407F02D0B3F1D2
:1034A800806F23D1002D31D12D4A936D23F0E06335
:1034B800D4F8AC100B439365236813F0007F2ED02B
:1034C800E36C202B40D026D833B1102B20D1244ACE
:1034D800D36A43F40033D362002D3CD1204AD36C25
:1034E80023F03003E16C0B43D36418E00126354622
:1034F800E2E71B4AD36A43F40033D362D2E70021E0
:1035080004F12800FFF756FE0546CBE72E46D3E721
:103518000126354603E0302BDED0012635462368E8
:1035280013F4805F2DD0236EB3F5005F4FD019D808
:10353800002B46D0B3F5805F0FD1002104F10800BD
:10354800FFF7B2FD054613E0022104F10800FFF77A
:10355800ABFD0546C0E72E46E1E70126354610E0FB
:1035680000440258B3F5405F02D0B3F5804F25D12F
:10357800002D33D1774A136D23F4E043216E0B43BA
:103588001365236813F4005F38D0636EB3F5003F0A
:1035980053D028D843B1B3F5803F21D1012104F19C
:1035A8000800FFF781FD0546002D4DD1694A136DCE
:1035B80023F4E023616E0B4313651FE001263546B3
:1035C800DFE7644AD36A43F40033D362D0E70021CB
:1035D80004F12800FFF7EEFD0546C9E72E46D0E7BF
:1035E800012635460AE0B3F5802FDDD0B3F5A02FCC
:1035F800DAD0B3F5403FD7D001263546236813F417
:10360800804F31D0D4F8B030B3F1005F45D020D826
:1036180043B1B3F1805F19D1012104F10800FFF72C
:1036280043FD0546002D3FD14A4A936D23F0E04300
:10363800D4F8B0100B43936516E0012104F128007B
:10364800FFF7B8FD0546AFE72E46D7E70126354612
:103658000AE0B3F1804FE5D0B3F1A04FE2D0B3F167
:10366800405FDFD001263546236813F4004F09D0A8
:10367800236FB3F1805F19D0B3F1005F24D0D3B1C9
:1036880001263546236813F0807F33D0A36C032BC3
:103698005BD8DFE803F027225327012104F1280033
:1036A800FFF788FD0546BDE72E46DDE7294AD36AC0
:1036B80043F40033D36275B9264A136D23F040539F
:1036C800216F0B431365DDE7012104F10800FFF7C3
:1036D800EBFC0546EFE72E46D4E71E4AD36A43F4CF
:1036E8000033D362A5BB1B4AD36C23F00303A16C40
:1036F8000B43D364236813F4800F2DD1236813F090
:10370800010F00F0A580E36F282B00F29F80DFE80F
:1037180003F08D9D9D9D9D9D9D9D879D9D9D9D9D3E
:103728009D9D969D9D9D9D9D9D9D8D9D9D9D9D9DD8
:103738009D9D8D9D9D9D9D9D9D9D8D00022104F1CA
:103748000800FFF7B1FC0546CCE701263546D1E76E
:103758002E46CFE700440258914A136843F4807319
:10376800136001F0C3FB07468D4B1B6813F4807F81
:1037780005D101F0BBFBC01B6428F5D90325002D3A
:103788004AD1884B1B6FD4F8B420534013F4407FC0
:103798000CD0844B1A6F22F44072196F41F48031B7
:1037A8001967196F21F4803119671A67D4F8B43092
:1037B800B3F5807F15D08DBBD4F8B43003F44072D4
:1037C800B2F5407F1ED0774A136923F47C53136106
:1037D80074490B6FD4F8B420C2F30B0213430B6780
:1037E8008CE701F083FB07466E4B1B6F13F0020F4B
:1037F800E1D101F07BFBC01B41F288339842F3D939
:103808000325D8E76748026922F47C52664901EA31
:10381800131313430361DBE72E466FE72E466DE76C
:10382800012104F10800FFF73FFC0546E5B95D4AB0
:10383800536D23F03803E16F0B43536508E0012112
:1038480004F12800FFF7B6FC0546EFE701263546E8
:10385800236813F0020F17D0A36F052B28D8DFE8D1
:1038680003F00B05200B0B0B2E46F1E7012104F1A9
:103878000800FFF719FC0546EDB94A4A536D23F0D5
:103888000703A16F0B435365236813F0040F23D07C
:10389800D4F89430052B45D8DFE803F0150F3D1513
:1038A8001515012104F12800FFF784FC0546E3E71C
:1038B80001263546E8E72E46E6E7012104F108002F
:1038C800FFF7F2FB054685BB364A936D23F00703E5
:1038D800D4F894100B439365236813F0200F34D069
:1038E800D4F89030B3F1005F4ED023D843B1B3F190
:1038F800805F1CD1002104F10800FFF7D5FB0546C5
:10390800002D48D1274A536D23F0E043D4F8901096
:103918000B43536519E0012104F12800FFF74AFC25
:103928000546D0E701263546D6E72E46D4E70126D8
:1039380035460AE0B3F1804FE2D0B3F1A04FDFD0B3
:10394800B3F1405FDCD001263546236813F0400F01
:1039580037D0D4F89C30B3F5006F53D026D843B194
:10396800B3F5806F19D1002104F10800FFF79CFB23
:103978000546002D4DD10B4A936D23F4E053D4F83E
:103988009C100B4393651CE0022104F12800FFF70B
:1039980011FC0546B4E72E46D7E70126354610E068
:1039A8000048025800440258CFFFFF00B3F5805F7B
:1039B800DFD0B3F5A05FDCD0B3F5406FD9D00126D6
:1039C8003546236813F0800F33D0D4F8A030B3F510
:1039D800804F00F0A38021D843B1B3F5005F1AD11E
:1039E800002104F10800FFF75FFB0546002D40F0B9
:1039F8009C80814A936D23F46043D4F8A0100B4354
:103A0800936516E0022104F12800FFF7D3FB054671
:103A1800AFE72E46D5E7012635460AE0B3F5004F55
:103A2800E4D0B3F5204FE1D0B3F5C04FDED0012686
:103A38003546236813F0080F0CD0D4F88430B3F55A
:103A4800805F74D06C4A536D23F44053D4F88410CB
:103A58000B435365236813F0100F0CD0D4F898303B
:103A6800B3F5807F6CD0644A936D23F44073D4F827
:103A780098100B439365236813F4002F0BD0D4F8E8
:103A8800A430B3F5803F74D0B3F5003F67D0002B66
:103A98005FD001263546236813F4802F0CD0D4F864
:103AA8008830B3F5001F7CD0B3F5401F6FD0B3F555
:103AB800801F67D001263546236813F4803F08D05D
:103AC800236D002B76D0B3F5803F00F0818001266E
:103AD8003546236813F0005F40F08380236813F4B1
:103AE800003F00F08E80D4F88030B3F5807F00F07E
:103AF800EC8040F28380B3F5007F03D0B3F5407FBC
:103B080040F0E180002D40F0E6803B4A536D23F4FD
:103B18004073D4F880100B43536572E0022104F11E
:103B28002800FFF747FB054660E72E4681E702219C
:103B380004F12800FFF73EFB002883D0012681E727
:103B4800022104F12800FFF735FB00288BD001265D
:103B580089E7002104F10800FFF7A6FA05467DB9B8
:103B6800254A936D23F44033D4F8A4100B4393658E
:103B780091E7022104F12800FFF71CFB0546EEE758
:103B88002E4688E71C4AD36A43F40033D3627DB9D2
:103B9800194A536D23F44013D4F888100B43536526
:103BA8008AE7012104F12800FFF704FB0546EEE748
:103BB8002E4681E7104AD36A43F40033D36275B9BD
:103BC8000D4AD36C23F48033216D0B43D36480E713
:103BD800022104F10800FFF767FA0546EFE72E46D1
:103BE80077E7022104F12800FFF7E4FA00283FF400
:103BF80075AF012672E700BF00440258002B81D040
:103C08000126236813F4801F06D04F4A136D23F052
:103C18000043616F0B431365236813F0805F07D07F
:103C2800494A136923F48043D4F8B8100B4313614D
:103C3800236813F4001F06D0434A136D23F08073E2
:103C4800E16E0B431365236813F0804F09D03E4B98
:103C58001A6922F400421A611A69D4F8BC100A439E
:103C68001A612368002B06DA374AD36C23F04053D5
:103C7800616D0B43D364236813F4000F07D0324AF5
:103C8800536D23F44003D4F88C100B4353656368D9
:103C980013F0010F21D1636813F0020F26D1636876
:103CA80013F0040F2BD1636813F0080F30D1636849
:103CB80013F0100F35D1636813F0200F3AD106B115
:103CC80001263046F8BD01269BE71F4AD36A43F414
:103CD8000033D36216E72E4693E7002104F108006B
:103CE800FFF7E2F90028D6D00646D4E7012104F10F
:103CF8000800FFF7D9F90028D1D00646CFE70221FE
:103D080004F10800FFF7D0F90028CCD00646CAE72E
:103D1800002104F12800FFF74DFA0028C7D0064615
:103D2800C5E7012104F12800FFF744FA0028C2D0B2
:103D38000646C0E7022104F12800FFF73BFA0028F5
:103D4800BDD00646BBE700BF0044025808B5FFF7E0
:103D580077F9054B1B6AC3F30213044AD35C03F0DB
:103D68001F03D84008BD00BF00440258A8640008DB
:103D780010B5774A916A946AC4F3053ED36AC3F3CF
:103D8800001CD36BC3F3CC030CFB03F314F47C3F8C
:103D980000F0D88001F0030107EE903AF8EE677A58
:103DA800012965D0022900F0B080E1B107EE10EAE0
:103DB800B8EE477A9FED676AC6EE076A644B9B6B5D
:103DC800C3F3080307EE103AB8EE477A9FED626A2C
:103DD80067EE867A77EE277AB7EE007A77EE877AFB
:103DE80066EEA76A60E0136813F0200F23D011462F
:103DF8001268C2F3C102594BD34007EE103AB8EE2D
:103E0800477A06EE90EAB8EE666AC7EE066A8B6BEA
:103E1800C3F3080307EE103AB8EE477A9FED4E6AEF
:103E280067EE867A77EE277AB7EE007A77EE877AAA
:103E380066EEA76A38E007EE10EAB8EE477A9FED1B
:103E4800486AC6EE076A424B9B6BC3F3080307EE4A
:103E5800103AB8EE477A9FED406A67EE867A77EEB9
:103E6800277AB7EE007A77EE877A66EEA76A1BE0C4
:103E780007EE10EAB8EE477A9FED366AC6EE076A93
:103E8800334B9B6BC3F3080307EE103AB8EE477A3F
:103E98009FED316A67EE867A77EE277AB7EE007A79
:103EA80077EE877A66EEA76A294A936BC3F34623AF
:103EB80007EE103AB8EE477AB7EE006A37EE067AA0
:103EC800C6EE877AFCEEE77AC0ED007A936BC3F30F
:103ED800064307EE103AB8EE477A37EE067AC6EE92
:103EE800877AFCEEE77AC0ED017A936BC3F3066339
:103EF80007EE903AF8EE677A77EE867A86EEA77A3A
:103F0800BCEEC77A80ED027A10BD07EE10EAB8EE73
:103F1800477A9FED146AC6EE076A0D4B9B6BC3F395
:103F2800080307EE103AB8EE477A9FED0B6A67EE82
:103F3800867A77EE277AB7EE007A77EE877A66EE9A
:103F4800A76AB1E70023036043608360DCE700BF32
:103F5800004402580024744A000000390090D0033D
:103F68000024744C0024F44A10B5774A916A946A84
:103F7800C4F3055ED36AC3F3002C536CC3F3CC03BC
:103F88000CFB03F314F07C7F00F0D88001F00301F0
:103F980007EE903AF8EE677A012965D0022900F019
:103FA800B080E1B107EE10EAB8EE477A9FED676A94
:103FB800C6EE076A644B1B6CC3F3080307EE103A9E
:103FC800B8EE477A9FED626A67EE867A77EE277ACF
:103FD800B7EE007A77EE877A66EEA76A60E0136834
:103FE80013F0200F23D011461268C2F3C102594BB7
:103FF800D34007EE103AB8EE477A06EE90EAB8EEEC
:10400800666AC7EE066A0B6CC3F3080307EE103A3C
:10401800B8EE477A9FED4E6A67EE867A77EE277A92
:10402800B7EE007A77EE877A66EEA76A38E007EE91
:1040380010EAB8EE477A9FED486AC6EE076A424B27
:104048001B6CC3F3080307EE103AB8EE477A9FEDEE
:10405800406A67EE867A77EE277AB7EE007A77EECF
:10406800877A66EEA76A1BE007EE10EAB8EE477A91
:104078009FED366AC6EE076A334B1B6CC3F3080321
:1040880007EE103AB8EE477A9FED316A67EE867A06
:1040980077EE277AB7EE007A77EE877A66EEA76A28
:1040A800294A136CC3F3462307EE103AB8EE477A51
:1040B800B7EE006A37EE067AC6EE877AFCEEE77A44
:1040C800C0ED007A136CC3F3064307EE103AB8EE5E
:1040D800477A37EE067AC6EE877AFCEEE77AC0EDC5
:1040E800017A136CC3F3066307EE903AF8EE677A29
:1040F80077EE867A86EEA77ABCEEC77A80ED027AEA
:1041080010BD07EE10EAB8EE477A9FED146AC6EEC6
:10411800076A0D4B1B6CC3F3080307EE103AB8EEA1
:10412800477A9FED0B6A67EE867A77EE277AB7EEC5
:10413800007A77EE877A66EEA76AB1E70023036014
:1041480043608360DCE700BF004402580024744ADF
:10415800000000390090D0030024744C0024F44A75
:1041680010B5774A916A946AC4F3051ED36A03F0BE
:10417800010C536BC3F3CC030CFB03F314F47C7FE7
:1041880000F0D88001F0030107EE903AF8EE677A64
:10419800012965D0022900F0B080E1B107EE10EAEC
:1041A800B8EE477A9FED676AC6EE076A644B1B6BE9
:1041B800C3F3080307EE103AB8EE477A9FED626A38
:1041C80067EE867A77EE277AB7EE007A77EE877A07
:1041D80066EEA76A60E0136813F0200F23D011463B
:1041E8001268C2F3C102594BD34007EE103AB8EE39
:1041F800477A06EE90EAB8EE666AC7EE066A0B6B77
:10420800C3F3080307EE103AB8EE477A9FED4E6AFB
:1042180067EE867A77EE277AB7EE007A77EE877AB6
:1042280066EEA76A38E007EE10EAB8EE477A9FED27
:10423800456AC6EE076A424B1B6BC3F3080307EED9
:10424800103AB8EE477A9FED406A67EE867A77EEC5
:10425800277AB7EE007A77EE877A66EEA76A1BE0D0
:1042680007EE10EAB8EE477A9FED396AC6EE076A9C
:10427800334B1B6BC3F3080307EE103AB8EE477ACB
:104288009FED316A67EE867A77EE277AB7EE007A85
:1042980077EE877A66EEA76A294A136BC3F346233B
:1042A80007EE103AB8EE477AB7EE006A37EE067AAC
:1042B800C6EE877AFCEEE77AC0ED007A136BC3F39B
:1042C800064307EE103AB8EE477A37EE067AC6EE9E
:1042D800877AFCEEE77AC0ED017A136BC3F30663C5
:1042E80007EE903AF8EE677A77EE867A86EEA77A46
:1042F800BCEEC77A80ED027A10BD07EE10EAB8EE80
:10430800477A9FED146AC6EE076A0D4B1B6BC3F321
:10431800080307EE103AB8EE477A9FED0B6A67EE8E
:10432800867A77EE277AB7EE007A77EE877A66EEA6
:10433800A76AB1E70023036043608360DCE700BF3E
:10434800004402580024744C000000390090D00347
:104358000024744A0024F44A00B58BB0A0F5807399
:104368000B432ED0A0F500730B437ED0A0F58063DD
:104378000B4300F0D480A0F500630B4300F02C81C0
:10438800A0F580530B4300F08B81A0F500530B433D
:1043980000F0E381A0F500230B4300F02C82A0F588
:1043A80080330B4300F06F82A0F580430B4300F08D
:1043B8009082A0F5004050EA010300F0D38200206B
:1043C80001E3954B1B6D03F00703042B00F2F28207
:1043D800DFE803F005101B0326009048F3E28E4B3C
:1043E800186810F0007000F0EE8207A8FFF7B8FE1A
:1043F8000898E8E2884B186810F0006000F0E38243
:1044080004A8FFF7B5FC0498DDE2834B186810F0A8
:10441800005000F0D88201A8FFF7A6FD0198D2E26B
:104428007D4AD36C03F04053126812F0040F07D092
:1044380033B9794B1B68C3F3C1037948D840C2E24A
:10444800754A126812F4807F03D0B3F1805F00F0E0
:10445800B382714A126812F4003F00F0AF82B3F1E0
:10446800005F00F0AD820020ADE26B4B1B6D03F4E2
:10447800E073802B33D015D9C02B00F0A382B3F59D
:10448800807F1FD1644AD36C03F04053126812F046
:10449800040F2FD073BB604B1B68C3F3C103604884
:1044A800D84090E283B1402B0AD15B4B186810F0DA
:1044B800006000F0888204A8FFF75AFC049882E2A2
:1044C800002080E200207EE2534B186810F0007054
:1044D80000F0798207A8FFF743FE089873E24E4B75
:1044E800186810F0005000F06E8201A8FFF73CFD3C
:1044F800019868E2484A126812F4807F03D0B3F149
:10450800805F00F06382444A126812F4003F00F0B2
:104518005F82B3F1005F00F05D82002053E23E4B02
:104528009B6D03F46003B3F5800F35D016D9B3F54E
:10453800C00F00F05182B3F5000F20D1364AD36C7A
:1045480003F04053126812F0040F30D07BBB324B9B
:104558001B68C3F3C1033248D84034E28BB1B3F5CA
:10456800001F0AD12C4B186810F0006000F02B8255
:1045780004A8FFF7FDFB049825E2002023E20020B1
:1045880021E2254B186810F0007000F01C8207A883
:10459800FFF7E6FD089816E21F4B186810F0005068
:1045A80000F0118201A8FFF7DFFC01980BE21A4A1C
:1045B800126812F4807F03D0B3F1805F00F00E829E
:1045C800154A126812F4003F00F00A82B3F1005F46
:1045D80000F008820020F6E10F4B9B6D03F0E063CA
:1045E800B3F1007F3CD01DD9B3F1407F00F0FC81CE
:1045F800B3F1806F27D1084AD36C03F04053126897
:1046080012F0040F37D0002B35D1034B1B68C3F3CE
:10461800C1030348D840D6E1004402580080BB00DB
:104628000090D0038BB1B3F1807F0AD19A4B186800
:1046380010F0006000F0C78104A8FFF799FB049808
:10464800C1E10020BFE10020BDE1934B186810F0E4
:10465800007000F0B88107A8FFF782FD0898B2E162
:104668008D4B186810F0005000F0AD8101A8FFF7DD
:104678007BFC0198A7E1884A126812F4807F03D076
:10468800B3F1805F00F0B281834A126812F4003FF0
:1046980000F0AE81B3F1005F00F0AC81002092E140
:1046A8007D4B1B6D03F4E043B3F5005F35D016D99D
:1046B800B3F5405F00F0A081B3F5804F20D1764A72
:1046C800D36C03F04053126812F0040F30D07BBB58
:1046D800714B1B68C3F3C1037048D84073E18BB1B9
:1046E800B3F5805F0AD16C4B186810F0006000F0D9
:1046F8006A8104A8FFF73CFB049864E1002062E1AA
:10470800002060E1644B186810F0007000F05B81D5
:1047180007A8FFF725FD089855E15F4B186810F0CA
:10472800005000F0508101A8FFF71EFC01984AE1F3
:10473800594A126812F4807F03D0B3F1805F00F009
:104748005D81554A126812F4003F00F05981B3F1B7
:10475800005F00F05781002035E14F4B1B6D03F4DB
:10476800E023B3F5403F32D016D8B3F5803F23D0CD
:10477800B3F5003F0AD1484B186810F0005000F01C
:10478800228101A8FFF7F0FB02981CE113B9FEF79C
:1047980079FC18E1002016E1B3F5802F23D0B3F59A
:1047A800A02F07D13C4B186810F4003000F00B81A3
:1047B8003B4808E1002006E1374B186810F000601C
:1047C80000F0018104A8FFF7D3FA0598FBE0324B0B
:1047D800186810F0040000F0F6801B68C3F3C103EA
:1047E8002E48D840EFE02C4B186810F4807000F089
:1047F800EA802C48E7E0284B9B6D03F44033B3F57F
:10480800803F10D0B3F5003F18D00BB10020DAE09C
:10481800214B186810F0006000F0D58004A8FFF75D
:10482800A7FA0498CFE01C4B186810F0005000F06D
:10483800CA8001A8FFF798FB0398C4E0164AD36C16
:1048480003F04053126812F0040F07D033B9124B2B
:104858001B68C3F3C1031148D840B4E00E4A12687C
:1048680012F4807F03D0B3F1805F00F0CD800A4A54
:10487800126812F4003F00F0C980B3F1005F00F045
:10488800C78000209FE0044BDB6C13F480330BD00F
:10489800ABB9002097E000BF004402580090D00355
:1048A80000127A0000093D005A4B186810F0007099
:1048B80000F0898007A8FFF753FC089883E0554B60
:1048C800186810F000607ED004A8FFF751FA069827
:1048D80079E0504B9B6D03F0E043B3F1405F2FD07C
:1048E80015D8B3F1805F21D0B3F1005F09D1494BEE
:1048F800186810F0005066D001A8FFF735FB029841
:1049080061E013B9FFF722FA5DE000205BE0B3F144
:10491800804F20D0B3F1A04F06D13E4B186810F459
:10492800003050D03C484EE000204CE0394B18682D
:1049380010F0006047D004A8FFF71AFA059842E083
:10494800344B186810F004003DD01B68C3F3C10352
:104958003248D84037E02F4B186810F4807032D0B6
:104968002F4830E02B4B1B6D03F04053B3F1805FB1
:104978000CD0B3F1005F13D00BB1002023E0254B1E
:10498800186810F400301ED023481CE0214B18682A
:1049980010F0007017D007A8FFF7E2FB089812E0A4
:1049A8001C4B186810F000600DD004A8FFF7E0F960
:1049B800059808E0002006E0194804E0002002E01D
:1049C800154800E017480BB05DF804FB1448FAE7F7
:1049D8000020F8E71048F6E71248F4E71048F2E735
:1049E8000020F0E70C48EEE70E48ECE70C48EAE751
:1049F8000020E8E70848E6E70A48E4E70848E2E76D
:104A08000020E0E70448DEE70548DCE70020DAE7B5
:104A18000148D8E70044025800127A000090D003F9
:104A280000093D000080BB00F0B583B000236BE0B7
:104A380085685E000324B44025EA0405CC68B440C8
:104A48002C438460446824EA0C0C4C68C4F30014BA
:104A58009C4044EA0C04446068E0DD08083550F8DE
:104A6800256003F007044FEA840C0F2404FA0CF4C1
:104A780026EA040E0C6904FA0CF444EA0E0440F821
:104A880025406BE0092400E0002404FA0EF42C43CE
:104A98000CF1020C694D45F82C404FF0B0442568E4
:104AA800D44325EA02064F6817F4801F01D042EA72
:104AB80005064FF0B0452E606D6804EA05064F689C
:104AC80017F4001F01D042EA05064FF0B0456E60AA
:104AD800D5F8845004EA05064F6817F4003F01D062
:104AE80042EA05064FF0B045C5F88460D5F8805015
:104AF8002C404E6816F4803F01D042EA05044FF07E
:104B0800B042C2F8804001330A6832FA03F400F078
:104B180092804FF0010C0CFA03FC1CEA0202F2D05E
:104B28004C6804F00304013C012C81D94C6804F062
:104B38000304032C0CD0C4685D004FF0030C0CFA7E
:104B480005FC24EA0C0C8C68AC4044EA0C04C460F4
:104B58004C6804F00304022C3FF47FAF04684FEA6A
:104B6800430E4FF0030C0CFA0EFC24EA0C0C4C68B4
:104B780004F0030404FA0EF444EA0C0404604C68DC
:104B880014F4403FBFD02E4CD4F8F45045F0020541
:104B9800C4F8F450D4F8F44004F002040194019CE1
:104BA8004FEA930C0CF10205244C54F8255003F0FD
:104BB80003044FEA840E0F2404FA0EF425EA0405D0
:104BC800204CA0423FF460AF04F58064A04222D09C
:104BD80004F58064A04220D004F58064A0421ED071
:104BE80004F58064A0421CD004F58064A0421AD069
:104BF80004F58064A04218D004F58064A04216D061
:104C080004F58064A04214D004F58064A0423FF407
:104C180039AF0A2439E7012437E7022435E70324AA
:104C280033E7042431E705242FE706242DE707247A
:104C38002BE7082429E703B0F0BD00BF00040058A3
:104C480000440258000002580AB181617047090403
:104C580081617047134BDB6813F0040F07D1114BC8
:104C6800DB6803F0070383421AD00120704710B5B0
:104C78000C4AD36823F007031843D06000F036F9D4
:104C88000446084B5B6813F4005F07D100F02EF967
:104C9800001BB0F57A7FF4D9012000E0002010BD98
:104CA8000020704700480258024AD36843F08073D6
:104CB800D3607047004802580649CB6823F4E06384
:104CC8001B041B0C000200F4E0600343024A1A4371
:104CD800CA60704700ED00E00000FA0500B5174B08
:104CE800DB68C3F30223C3F1070CBCF1040F28BF30
:104CF8004FF0040C03F1040EBEF1060F14D9033B68
:104D08004FF0FF3E0EFA0CFC21EA0C0199400EFA16
:104D180003F322EA03031943002807DB0901C9B298
:104D2800074B19545DF804FB0023E9E700F00F0076
:104D38000901C9B2034B1954F4E700BF00ED00E0C4
:104D480000E400E014ED00E0002807DB00F01F029B
:104D5800400901239340024A42F82030704700BFBF
:104D680000E100E00138B0F1807F0BD24FF0E02382
:104D78005861054AF02182F8231000209861072223
:104D88001A6170470120704700ED00E0BFF35F8FA4
:104D9800044B5A6A22F480325A620022C3F89420E3
:104DA800704700BF00ED00E040F00100054BC3F87C
:104DB80094005A6A42F480325A62BFF34F8FBFF3AD
:104DC8006F8F704700ED00E04278164BC3F89820CB
:104DD8000378FBB14368134AC2F89C30017BC37A5D
:104DE8001B0643EA0173817A43EAC143417B43EAE4
:104DF8008143817B43EA4143C17B43EA0143417AD2
:104E080043EA0123017A43EA410301780B43C2F8DC
:104E1800A0307047034B0022C3F89C20C3F8A020A1
:104E2800704700BF00ED00E0104B1B780BB9012064
:104E3800704710B504464FF47A70B0FBF3F30C4A90
:104E48001068B0FBF3F0FFF78DFF68B90F2C01D99C
:104E580001200AE0002221464FF0FF30FFF73EFF15
:104E6800044B1C60002000E0012010BD68000020F9
:104E7800700000206C00002010B50320FFF71CFF15
:104E8800FDF79AFE0F498B69C3F303230E4AD35CDF
:104E980003F01F03D8408B6903F00F03D35C03F0C2
:104EA8001F0320FA03F3094A1360094B18600F2007
:104EB800FFF7BAFF10B10124204610BD0446FBF7E6
:104EC80091FBF9E700440258A86400087400002028
:104ED80070000020034B1B78034A11680B441360D1
:104EE800704700BF68000020CC1D0020014B1868E7
:104EF800704700BFCC1D002038B50446FFF7F6FF09
:104F08000546B4F1FF3F02D0044B1B781C44FFF761
:104F1800EDFF401BA042FAD338BD00BF6800002057
:104F2800014B1868000C70470010005C002857D02F
:104F380010B5044690F84130002B41D0242384F862
:104F480041302268136823F0010313606368226804
:104F580023F0706313612268936823F4004393601D
:104F6800E368012B31D0A368226843F404439360BB
:104F7800E368022B2FD0226851681A4B0B43536009
:104F88002268D36823F40043D3602369626913431A
:104F9800A169226843EA0123D360E369216A226890
:104FA8000B4313602268136843F001031360002069
:104FB8006064202384F84130206384F8420010BDE7
:104FC80080F84030FBF720FBB8E7A368226843F479
:104FD80000439360CCE723684FF400625A60CAE745
:104FE800012070470080000290F84130DBB2202B8E
:104FF80024D190F84030012B22D0012380F8403092
:10500800242380F841300268136823F001031360F9
:105018000268136823F48053136002681368194305
:1050280011600268136843F001031360202380F8BD
:105038004130002380F840301846704702207047FE
:105048000220704790F84130DBB2202B22D190F833
:105058004030012B20D0012380F84030242380F8F1
:1050680041300268136823F0010313600268136873
:1050780023F4706343EA012111600268136843F066
:1050880001031360202380F84130002380F840306A
:10509800184670470220704702207047002800F029
:1050A800B28070B5044690F84D30002B4ED00223E4
:1050B80084F84D3023681A6812F0010F03D01A687B
:1050C80022F001021A60236800221A656368062B21
:1050D80018BF042B3FD00A2B3DD021680B6D4B4ADB
:1050E8001A406368A0680343E0680343A069034368
:1050F800206A0343606A0343206903431A4342F06A
:1051080001020A65236840F6F8729A6122681368FA
:1051180023F4803313602268D36823F40003E16921
:105128000B43D3606368062B18BF042B01D00A2BEE
:1051380006D12268D36823F00043A16A0B43D360E9
:1051480000202065012384F84D3070BD80F84C3074
:10515800FBF7A6FAABE76369022B4CD0E368002B98
:1051680038D00226A368B02B18BF302B34D10125C4
:105178004FF480500021FFF7EFF82369B3F1007F67
:105188002CD02023EB4006FB03F3B0FBF3F000EB3D
:10519800800043006069B3FBF0F305331C4AA2FBAF
:1051A8000323C3F3C002C2EBD3035B08012B14BF74
:1051B800002102F0010101BBFF2B1ED803B9012217
:1051C8002068056D13492940120642EA03430B4340
:1051D800036582E70126C5E70025C9E74FF4807318
:1051E800EB40B0FBF3F000EB800043006069B3FBD9
:1051F800F0F30533D2E70022D8E7236D43F010031C
:1052080023650120A1E70120704700BF4090FFFD02
:10521800CDCCCCCCFFFF00FE274AD2F8883043F42F
:105228007003C2F88830254B1B6803F00F03062B68
:1052380006D8224A136823F00F0343F007031360CC
:105248001F4B1A6842F001021A6000221A6119689D
:105258001C4A0A401A60194B1B6813F0080F06D045
:10526800164A136823F00F0343F007031360144B27
:1052780000229A61DA611A62134999621349D96264
:10528800134919635A639963DA6319645A6419688C
:1052980021F4802119601A660E4B1A680E4B1340D0
:1052A800B3F1005F03D20D4B0122C3F808210C4B68
:1052B80043F2D2021A60704700ED00E0002000526D
:1052C800004402587FEDF6EA000202020000FF01E6
:1052D800800201010010005C0000FFFF0080005107
:1052E8000040005298B108B503460020C3F8B80240
:1052F800C3F8C402C3F8D00209B1C3F8B41201213B
:1053080083F89C121A701846FBF7FAFB08BD0320B5
:10531800704710B582B00023ADF8063089B1044655
:10532800C0F8B812CB6A23B10DF106009847C4F84B
:10533800D002D4F8D8320133C4F8D832002002B0F1
:1053480010BD0320FBE708B5FBF73DFC08BD08B519
:10535800D0F8B83213B11B68984708BD0020FCE7A5
:1053680008B5D0F8B8325B68984700B908BD032083
:10537800FCE738B5044600F2AA25284600F0C9F92A
:105388000123C4F89432B4F8B032C4F8983294F8CF
:10539800AA1201F01F03012B0DD0022B10D02BB144
:1053A80001F080012046FBF729FC03E0294620464E
:1053B80000F096FB38BD2946204600F0CCFBF9E703
:1053C8002946204600F009FCF4E7F8B50446012315
:1053D80080F89C320023C0F894324360C0F8A432AD
:1053E80080F8A032D0F8B832DBB15B68DBB10021BD
:1053F80098470746C8B94023002211462046FBF7C4
:10540800EAFB0126A4F864614025C4F860512B46E4
:10541800002280212046FBF7DEFBA6842562384661
:10542800F8BD0027E7E70027E5E70327E3E701746E
:105438000020704790F89C32DBB2042B04D090F81F
:105448009C32DBB280F89D32042380F89C32002025
:10545800704790F89C32DBB2042B01D000207047D3
:1054680090F89D32DBB280F89C32F7E708B590F8E7
:105478009C32DBB2032B01D0002008BDD0F8B83233
:10548800002BF9D0DB69002BF6D09847F4E708B574
:10549800D0F8D432AE3350F823205AB190F89C3269
:1054A800DBB2032B01D0002008BD136A23B1984753
:1054B8000020F9E70320F7E70020F5E708B5D0F862
:1054C800D432AE3350F823205AB190F89C32DBB274
:1054D800032B01D0002008BD536A23B19847002050
:1054E800F9E70320F7E70020F5E70020704708B543
:1054F800012380F89C32D0F8B83223B15B68017977
:10550800984710B908BD0020FCE70320FAE70020FF
:1055180070470020704738B504460D46002943D12E
:105528001346D0F89422032A01D0084638BDD0F893
:105538005C11D0F86021914212D890F8AA3203F099
:105548001F03012B17D0022B1CD0284694F89C323D
:10555800DBB2032B1BD0204600F0A1FC2846E5E770
:10556800891AC0F85C118A4228BF0A46194600F019
:105578008EFC2846DAE790F8AE12FFF7C8FF00283D
:10558800E9D1E3E790F8AE12FFF7C3FFF7E700F1C0
:10559800AE0354F823301A69002ADCD0C4F8D402C8
:1055A8001B6920469847D6E701F07F01FFF7B1FF56
:1055B80090B994F89C32DBB2032BB7D100F1AE035B
:1055C80054F823309A69002AB0D0C4F8D4029B69F1
:1055D800294620469847A9E70020A7E738B504469A
:1055E8000D4600294BD11346D0F89422022A07D041
:1055F80094F8A00218B1002384F8A032284638BDD8
:10560800C269016A8A420ED88A4218D094F89C323C
:10561800DBB2032B27D080212046FBF7EFFA204688
:1056280000F048FCE4E7521AC261194600F018FC81
:1056380000231A4619462046FBF700FBD8E7836982
:105648009942E3D8D0F898229342DFD2002211463B
:1056580000F006FC0021C4F898120B460A462046C2
:10566800FBF7ECFAC4E7D4F8B832DA68002AD2D0EB
:105678000022C4F8D422DB6820469847CBE741F0E3
:105688008001FFF746FF90B994F89C32DBB2032BF8
:10569800B5D100F1AE0354F823305A69002AAED0D0
:1056A800C4F8D4025B69294620469847A7E700203A
:1056B800A5E703780A8813440B80037818447047D9
:1056C800428803789A4218D930B583B004460D460B
:1056D800ADF806306288BDF806309A420AD90DF155
:1056E8000601FFF7E6FF4378052BF3D18378AB4239
:1056F800F0D100E0002003B030BD00207047034621
:10570800002002E00130C0B201331A78002AF9D132
:1057180070470B7803704B7843708B78CA7843EAEC
:10572800022343800B794A7943EA022383808B79E9
:10573800CA7943EA0223C380704710B50446802122
:10574800FBF75CFA00212046FBF758FA10BD30B58C
:1057580083B004460D460023ADF806304A88130A84
:10576800013B0E2B00F2BC80DFE803F0153044BA91
:10577800BA9EABBABABABABABABA0800D0F8B43252
:10578800DB6923B10DF10601007C98470AE0294640
:10579800FFF7D3FF18E0D0F8B4321B680DF106010B
:1057A800007C9847EA88002A00F0A380BDF80630FC
:1057B800002B00F099809A4228BF1A46ADF80620BF
:1057C8000146204600F03FFB03B030BD037C43B9DF
:1057D800D0F8B8329B6A0DF106009847022343704F
:1057E800E0E7D0F8B832DB6A0DF1060098470223EB
:1057F8004370D7E7D2B2052A52D8DFE802F0031087
:105808001D2A3744D0F8B4325B6823B10DF1060184
:10581800007C9847C6E72946FFF78FFFD4E7D0F802
:10582800B4329B6823B10DF10601007C9847B9E7B3
:105838002946FFF782FFC7E7D0F8B432DB6823B107
:105848000DF10601007C9847ACE72946FFF775FF84
:10585800BAE7D0F8B4321B6923B10DF10601007C18
:1058680098479FE72946FFF768FFADE7D0F8B432BD
:105878005B6923B10DF10601007C984792E7294640
:10588800FFF75BFFA0E7D0F8B4329B6923B10DF1B5
:105898000601007C984785E72946FFF74EFF93E706
:1058A8002946FFF74AFF8FE7037C33B9D0F8B832AF
:1058B8005B6B0DF10600984774E72946FFF73DFF3B
:1058C80082E7037C43B9D0F8B8321B6B0DF10600B0
:1058D80098470723437065E72946FFF72EFF73E7CC
:1058E8002946FFF72AFF6FE729462046FFF725FFDD
:1058F8006AE7204600F0D3FA66E738B504468B8895
:10590800FBB9CB88EBB94B887F2B1AD803F07F05FE
:1059180090F89C32DBB2032B0CD080F89E522946BB
:10592800FBF77CF9204600F0BAFA35B1022384F877
:105938009C3209E0FFF701FF06E0012384F89C325E
:1059480002E02046FFF7F9FE38BD000070B50446B6
:105958000E468D782F4B1D70012D10D890F89C3273
:10596800DBB2022B0FD0032B26D0FFF7E6FE294B24
:1059780019782046FFF7F4FC0325284670BDFFF789
:10598800DCFE0325F9E7A5B145602946FFF7DFFCF2
:10599800054638B131462046FFF7CFFE022384F88A
:1059A8009C32EAE7204600F07AFA032384F89C3216
:1059B800E3E700F074FAE0E7CDB141688D4225D005
:1059C800C9B2FFF7CDFC134B197861602046FFF789
:1059D800BEFC0546B0B131462046FFF7AEFE217940
:1059E8002046FFF7BDFC022384F89C32C5E702235A
:1059F80080F89C3245602946FFF7B2FC204600F04B
:105A08004EFABAE7204600F04AFAB6E700F047FA3D
:105A18000025B2E7D01D002008B5CB88012B0BD19B
:105A280090F89C32DBB2022B09D9032B09D1012251
:105A3800011D00F008FA01E0FFF77FFE08BD5BB228
:105A480013B9FFF77AFEF9E70146002341F8083F4A
:105A5800012200F0F8F9F1E708B590F89C32013B13
:105A6800022B12D8CB88022B0CD10123C360D0F8AB
:105A7800A4320BB10323C360022200F10C0100F031
:105A8800E2F908BDFFF759FEFBE7FFF756FEF8E716
:105A980008B54B88012B04D0022B07D0FFF74DFE29
:105AA80008BDC0F8A43200F0FAF9F9E78B881B0AA0
:105AB80080F8A03200F0F3F9F2E708B590F89C32CC
:105AC800013B022B09D84B88012B00D008BD0023CD
